S01C0000626875616E3031395F637573746F6D5F736E65732E737265634E
S113000045C0000060C000005EC000005CC000008D
S11300105AC0000058C0000056C0000054C0000080
S113002052C0000050C000004EC000004CC0000090
S11300304AC0000048C0000046C0000044C00000A0
S113004042C0000040C000003EC000003CC00000B0
S11300503AC0000038C0000036C0000034C00000C0
S113006032C0000030C000002EC000002CC00000D0
S11300702AC0000028C0000026C0000024C00000E0
S113008022C0000020C000001EC0000011241FBEBA
S1130090CFEFD0E4DEBFCDBF11E0A0E0B1E0E6E5F4
S11300A0F2E000E00BBF02C007900D92A430B1074C
S11300B0D9F721E0A4E0B1E001C01D92A830B20755
S11300C0E1F7BBD0C6C09CCF109206011092050187
S11300D088B1E0910401F0E0EF5FFE4F9081992335
S11300E011F0826001C08D7F88B988B1E091000170
S11300F0F0E0EF5FFE4F9081992311F0816001C021
S11301008E7F88B981E08093040188B190910201C7
S1130110992311F0826001C08D7F88B91092040187
S113012088B190910101992311F0826001C08D7F03
S113013088B986B18095847090E09093060180938D
S113014005013EE0E1E0F1E041E01092000188B1F8
S11301509081992311F0816001C08E7F88B98091CC
S1130160050190910601880F991F909306018093D1
S1130170050126B120952470820F911D90930601EC
S1130180809305014093000188B19181992311F076
S1130190816001C08E7F88B93150B9F6089580918D
S11301A00701823051F128F4882341F0813011F1A4
S11301B02DC0833029F1843031F128C080910501AC
S11301C09091060193FF04C081E08093070129C048
S11301D092FF04C082E08093070126C091FF04C00F
S11301E083E08093070123C090FF26C084E08093BE
S11301F0070120C010920701089510920701089585
S1130200109207010895109207010895823061F059
S113021018F4813031F00895833049F0843051F07E
S1130220089581E08BB9089582E08BB9089584E044
S11302308BB9089588E08BB908958BEF87B984E072
S113024088B98FEF8AB91BB8109207013DDFA7DF89
S1090250FDCFF894FFCF7E
S1070256010001009E
S9030000FC
