S01100007374727563747572652E7372656322
S11300005DC0000079C0000077C0000075C000002A
S113001073C0000071C000006FC000006DC000001C
S11300206BC0000069C0000067C0000065C000002C
S113003063C00000A0C000005FC000005DC00000FD
S11300405BC0000059C0000057C0000055C000004C
S113005053C0000051C000004FC000004DC000005C
S11300604BC0000049C0000047C0000045C000006C
S113007043C0000041C000003FC000003DC000007C
S11300803BC0000039C0000037C000009F03790363
S113009080038D03D2039603D20332040F041404A5
S11300A01904320432043D048D06F8050F062106B6
S11300B033064506570669067B06FD0511241FBE57
S11300C0CFEFD0E4DEBFCDBF11E0A0E0B1E0EEE7BA
S11300D0F5E100E00BBF02C007900D92AA32B10710
S11300E0D9F721E0AAE2B1E001C01D92AA36B20715
S11300F0E1F7B7D70C94BD0A83CF0196029718F0A5
S11301008FEF9FEF089580E090E0089560931B01C6
S113011070931C0180931D0190931E0160934B0109
S113012070934C0180934D0190934E0108958BE0A0
S1130130809381008DE790E09093890080938800FC
S113014082E080936F001092850010928400809169
S11301501B0190911C01A0911D01B0911E0180937F
S11301604B0190934C01A0934D01B0934E018FB776
S113017080688FBF08951F920F920FB60F921124BB
S11301808F939F93AF93BF9380914B0190914C01B8
S1130190A0914D01B0914E010197A109B10980933D
S11301A04B0190934C01A0934D01B0934E01892BC8
S11301B08A2B8B2B99F481E080934F0180911B0152
S11301C090911C01A0911D01B0911E0180934B01DF
S11301D090934C01A0934D01B0934E01BF91AF9108
S11301E09F918F910F900FBE0F901F901895CF92F3
S11301F0DF92EF92FF926B017C0120E030E0A901D5
S11302000E940D09811106C0E1E9F0E08081887047
S1130210808305C0E1E9F0E080818360808328E584
S113022039E344E75FE3C701B601F7D788233CF419
S11302308FEF9FEF909399008093980026C020E061
S113024034E244EF56E4C701B6010E941F0A1816AF
S11302502CF4109299001092980017C020E030E01E
S113026040E053E4C701B6010E94230A9B01AC019C
S113027060E074E284EF9AE4D4D70E947909615073
S113028071097093990060939800109295001092F0
S11302909400FF90EF90DF90CF90089580E48093D6
S11302A090008BE08093910060E070E0CB019FCFE1
S11302B00895FC01A285B38511968C9181110FC01C
S11302C0A485B58511969C9191110AC00684F78581
S11302D0E02D81E09181992319F080E0089580E078
S11302E00895FC01A081B1818FEF8C93A081B1812D
S11302F011961C92A281B3818C93A281B381119631
S11303001C92A481B5818C93A481B58111961C9211
S1130310A681B7818C93A681B78111961C92A08582
S1130320B1858C93A085B18511961C92A285B38565
S11303308C93A285B38511961C92A485B5858C9364
S1130340A485B58511961C92A685B7858C930684E1
S1130350F785E02D11820895FC01A081B1818EEF13
S11303608C93A081B1818CE111968C93A281B3818D
S11303708DEF8C93A281B38188E011968C93A48134
S1130380B5818FEF8C93A481B58111961C92A681BF
S1130390B7818C93A681B78111961C92A085B185F3
S11303A08C93A085B18511961C92A285B3859FED8F
S11303B09C93A285B38511968C93A485B5859FEBF8
S11303C09C93A485B58511968C93A685B7859FE7E4
S11303D09C930684F785E02D81830895CF93DF9362
S11303E0DC01FB01CD91DC9111979EEF9883CD91B7
S11303F0DC9111978CE189831296CD91DC9113974E
S11304003DEF388312960D90BC91A02D28E01196F3
S11304102C93A081B1813C93A081B18111962C933E
S1130420A081B18121E012962C93A081B18123E0B7
S113043013962C930190F081E02D168220931901DC
S1130440DA01ED91FC9111979083ED91FC918183F8
S1130450DF91CF910895FC01A081B18181E88C9353
S1130460A081B18186E011968C93A281B38189EF3A
S11304708C93A281B38188E311968C93A481B58176
S11304808FEF8C93A481B58111961C92A681B781BC
S11304908C93A681B78111961C92A085B1858C930B
S11304A0A085B18511961C92A285B3858C93A285F3
S11304B0B38511961C92A485B5858C93A485B585C6
S11304C011961C92A685B7858C930684F785E02D3A
S11304D011820895FC01A081B18181E88C93A081EF
S11304E0B18193E011969C93A281B38199EF9C937F
S11304F0A281B3819CEF11969C93A481B5818C93C6
S1130500A481B58190EC11969C93A681B7818C93BC
S1130510A681B78188E111968C93A085B1858FEF70
S11305208C93A085B18511961C92A285B3858C937A
S1130530A285B38511961C92A485B5858C93A48558
S1130540B58511961C92A685B7858C930684F7858C
S1130550E02D11820895CF92DF92FF920F931F93A3
S1130560CF93DF93DC01ED91FC9111978581938109
S1130570282F082E000C330B290F311D283031058C
S113058010F081958583ED91FC911197F28094810F
S1130590292F092E000C330B2F0D311D2830310566
S11305A01CF09195948376C0E901CC0FDD1FC60F32
S11305B0D71F0990D881C02D9F0D41E050E002C0A3
S11305C0440F551F9A95E2F78881482309F05DC0CE
S11305D053819581950F01E010E0680102C0CC0CB5
S11305E0DD1C9A95E2F7C6014981142F1C2109F4F8
S11305F04CC08D01121613060CF040C0EF2DF0E034
S1130600EE0FFF1FE60FF71F0190F081E02D6181CF
S11306107FEF750F21E030E002C0220F331F7A957F
S1130620E2F72623C9F071E0750F21E030E002C043
S1130630220F331F7A95E2F7262371F021E030E090
S113064002C0220F331F5A95E2F7542F522321F090
S113065020954223498303C080954823498364EA53
S113066070ED82E893E4C3DD80911801815080939A
S11306701801809147018F5F80934701D801ED9164
S1130680FC9184818195848305C01216130614F0AD
S113069081E08683DF91CF911F910F91FF90DF90CE
S11306A0CF900895CF93DF93FC0120813181DB014A
S11306B0CD91DC918881D9018C9320813181DB013A
S11306C0CD91DC918981D90111968C930190F081AF
S11306D0E02D83E08283DF91CF910895FC01319670
S11306E0E730F10518F4EA5BFF4F3EC78FEF9FEF49
S11306F0089580914A01813011F581E090E00895D8
S113070020914A012223D9F02091450130914601DC
S113071030FD31C031FD1EC0089580914501909196
S1130720460190FD28C083E090E008958091450142
S11307309091460191FD0EC085E090E0089564E03B
S113074071E082E091E0AEDF83E08093190180E004
S113075090E008958091590180FD1EC0EDE5F1E01F
S1130760818186958183809119018150809319013B
S113077084E090E0089580915901882384F0EDE5A8
S1130780F1E08181880F8183809119018F5F8093CB
S1130790190182E090E0089584E090E0089582E0F9
S11307A090E0089581E090E00895CF93DF93FC01F9
S11307B020813181DB011296CD91DC9113978881E0
S11307C0D9018C9320813181DB011296CD91DC918A
S11307D013978981D90111968C93A081B18181E00D
S11307E012968C93A081B18193E013969C93A0817F
S11307F0B18114968C93A081B18115968C9301904C
S1130800F081E02D1682DF91CF9108950196873013
S1130810910508F0F0C0835B9F4FFC01A5C6809151
S11308204A018130F9F429C08091450187FD68C0EF
S113083024C080914A018823A9F084E091E039DD45
S1130840813009F4C3C080916701813009F058C038
S113085080911A018111C0C081E08093490183E035
S113086090E0089583E08093190164E071E080E0F2
S113087091E09BDF80E090E00895809145019091A4
S1130880460188279370892B09F4B8C0A1E6B1E02A
S11308901296EC911297F0E0EE0FFF1FEC5FFE4F03
S11308A00190F081E02D81E090E09C0113960C9082
S11308B0139702C0220F331F0A94E2F72095318167
S11308C0232321832091190113962C9313971296B5
S11308D0EC911297F0E0EE0FFF1FEC5FFE4F0190DA
S11308E0F081E02D02C0880F991F2A95E2F79181CB
S11308F0892B818381E014968C9381E090E00895A4
S113090064E071E080E091E026DE8091670181116E
S113091078C0E1E6F1E0A281B0E0AA0FBB1FAC5FB2
S1130920BE4F0D90BC91A02D81E090E09C0103800E
S113093002C0220F331F0A94E2F7209511963C91CE
S11309401197232311962C9322813481A32F032EF4
S1130950000CBB0BA20FB11DAA0FBB1FAC5FBE4F97
S11309600D90BC91A02D230FAC0102C0440F551F64
S11309702A95E2F79A0120953C9123232C93228116
S1130980A4810A2E000CBB0BA20FB11DAA0FBB1F22
S1130990AC5FBE4F0D90BC91A02D33812581230FF8
S11309A002C0880F991F2A95E2F711969C9111971E
S11309B0892B11968C9392818481890F82839381F0
S11309C08581890F838382E090E0089581E080939C
S11309D0480184E090E0089580911A018150809349
S11309E01A0142E051E060E071E084E091E0F6DC5D
S11309F085E090E008958FEF9FEF089581E090E007
S1130A00089582E090E0089520E030E058E0A82FB7
S1130A10B0E0613079F452B942B1FD01022E02C056
S1130A20F595E7950A94E2F79E2F9170942B92B96D
S1130A30119A32C0623079F455B995B1FD01022E94
S1130A4002C0F595E7950A94E2F78E2F8170892B01
S1130A5085B9299A21C0633079F458B998B1FD0158
S1130A60022E02C0F595E7950A94E2F78E2F817065
S1130A70892B88B9419A10C0643071F45BB99BB179
S1130A80FD01022E02C0F595E7950A94E2F78E2F38
S1130A908170892B8BB9599A2F5F3F4F28303105CC
S1130AA009F0B7CF613019F4129A12B80895623080
S1130AB019F42A9A15B80895633019F4429A18B8AB
S1130AC00895643011F45A9A1BB8089520E030E078
S1130AD058E0E82FF0E052B942B1BF01022E02C043
S1130AE0759567950A94E2F7962F9170942B92B9B5
S1130AF0119A2F5F3F4F2830310569F7129A12B8C7
S1130B00089540E050E0E0E8682F70E0E2B992B167
S1130B109B01042E02C0359527950A94E2F72170B3
S1130B20332722953295307F3227207F3227292B95
S1130B3022B9159A4F5F5F4F4830510539F7169A1D
S1130B4012B8089520E030E058E0E82FF0E05BB9F7
S1130B504BB1BF01022E02C0759567950A94E2F766
S1130B60962F9170942B9BB9599A2F5F3F4F283041
S1130B70310569F75A9A1BB808958823A1F081308A
S1130B80A1F08230A1F08330A1F08430A1F085304F
S1130B90A1F08630A1F08730A1F08830A1F089302F
S1130BA0A1F487EF08958EE7089588E408958DEB06
S1130BB008958DEE089583ED089587EE08958FEEE0
S1130BC0089582E308958FEF089580E00895CF9308
S1130BD0DF93EC0164E071E082E091E063DDFE010B
S1130BE03196EA30F10508F09BC0EC5AFF4FBCC4C3
S1130BF080914A01813009F095C0C4E0D1E0E881D8
S1130C00F981818163DFE881F98162E08081FCDE22
S1130C1080911A01B2DF75DFC1E0D0E083C0C4E087
S1130C20D1E0EA81FB81818151DFEA81FB8162E0CD
S1130C308081EADE80911A01A0DF63DFC2E0D0E0A8
S1130C4071C0C4E0D1E0EC81FD8181813FDFEC81A2
S1130C50FD8162E08081D8DE80911A018EDF51DF50
S1130C60C3E0D0E05FC0C4E0D1E0EE81FF818181C8
S1130C702DDFEE81FF8162E08081C6DE80911A0162
S1130C807CDF3FDFC4E0D0E04DC0C4E0D1E0E885C4
S1130C90F98581811BDFE885F98562E08081B4DE16
S1130CA080911A016ADF2DDFC5E0D0E03BC0C4E0CB
S1130CB0D1E0EA85FB85818109DFEA85FB8562E075
S1130CC08081A2DE80911A0158DF1BDFC6E0D0E0EC
S1130CD029C0C4E0D1E0EC85FD858181F7DEEC8597
S1130CE0FD8562E0808190DE80911A0146DF09DF94
S1130CF0C7E0D0E017C0C4E0D1E0EE85FF85818174
S1130D00E5DEEE85FF8562E080817EDE80911A015A
S1130D1034DFF7DEC8E0D0E005C0C0E0D0E002C0B8
S1130D20CFEFDFEF61E080E06FDE62E08FEF6CDE3B
S1130D30CE01DF91CF9108951092460110924501A2
S1130D4088B1E0914401F0E0EB5EFE4F908199237D
S1130D5011F0826001C08D7F88B988B1E0911401DF
S1130D60F0E0EB5EFE4F9081992311F0816001C0A9
S1130D708E7F88B981E08093440188B190911601F7
S1130D80992311F0826001C08D7F88B910924401CB
S1130D9088B190911501992311F0826001C08D7F73
S1130DA088B986B18095847090E0909346018093D1
S1130DB045013EE0E5E1F1E041E01092140188B123
S1130DC09081992311F0816001C08E7F88B9809150
S1130DD0450190914601880F991F90934601809395
S1130DE0450126B120952470820F911D90934601F0
S1130DF0809345014093140188B19181992311F0A6
S1130E00816001C08E7F88B93150B9F608951816F3
S1130E1019065CF00895000021503109E1F74F5F95
S1130E205F4F8417950719F4089540E050E027E0D8
S1130E3033E0F1CF439886DE449A0000449882E080
S1130E4090E0E5CF089584E690E0E1DF88E3F2DF07
S1130E5086E0F0DF8FE0EEDF81E0ECDF8AE090E017
S1130E60D6CF08958130910591F144F48F3F2FEF4F
S1130E70920709F495C0892B59F0F0C0833091058D
S1130E8009F468C00CF44AC0049709F477C0E6C0BA
S1130E90809145019091460195FF06C084E091E060
S1130EA020DA8FEF9FEF089594FFADC084E091E0C6
S1130EB053DA81E080934A0185E080931A0188E146
S1130EC0809318011092670182E090E00895809168
S1130ED045019091460195FF08C084E091E001DA54
S1130EE0109249018FEF9FEF089594FF11C084E0A1
S1130EF091E032DA81E080934A0185E080931A011F
S1130F0088E1809318011092670182E090E00895CF
S1130F1080914301882309F455C075C0209145018F
S1130F203091460135FF05C084E091E0DAD98FEFB6
S1130F309FEF20914901213009F47CC020914501A3
S1130F4024FD78C030914801313009F47DC025FD7D
S1130F507BC028C0809145019091460195FF08C04F
S1130F6084E091E0BED9109249018FEF9FEF08957C
S1130F7061E77DE98EEA93E43AD95CC0809145014A
S1130F809091460195FF06C084E091E0AAD98FEFC5
S1130F909FEF089564EA70EF86EF93E428D954C074
S1130FA080E090E08130910571F11CF4009751F0DC
S1130FB008958330910509F43DC08430910509F406
S1130FC043C0089584E091E08CD91092430181E0FC
S1130FD08093170110924A0110921A01109247014E
S1130FE080936701109248011092490160E070E01B
S1130FF0CB01FDD880E0C1DD84DD8CE291E007DF28
S113100080E090E0089584E091E06BD910924A0169
S113101010921A0181E080936701109248011092A6
S1131020490180E0AADD6DDD8CE291E0F0DE81E033
S113103090E0089510924A011092490184E091E0F1
S11310400ADA83E090E0089510924A011092480170
S113105084E091E03FDA84E090E008958FEF9FEF21
S11310600895CF93DF93CDB7DEB72A970FB6F894E0
S1131070DEBF0FBECDBF8FEF81B912B884B915B8EA
S11310809BEF97B994E098B98AB91BB8DCDE06D90E
S113109024E681E001C0292F622F38D2822F9111DA
S11310A0FACF36E901C0392F822F632F2FD2232F95
S11310B09111F9CF24E601C0292F832F622F26D264
S11310C0322F9111F9CF34EF01C0392F822F632FC2
S11310D01DD2232F9111F9CFC32ED12CE12CF12C49
S11310E08AE0EFE1F1E0DE01119601900D928A951C
S11310F0E1F70F2EFEE3AF2EF1E0BF2EF02D1FEF30
S1131100D5011C9361E070E080E090E0A7019601B6
S113111009D2F5012183228387EE95E094838383AA
S11311200F2EF9E3AF2EF1E0BF2EF02DD5011C9365
S113113064E670E080E090E0A7019601F3D1022F0D
S1131140F501218322838EE693E0948383830F2E1B
S1131150F4E3AF2EF1E0BF2EF02DD5011C9366E928
S113116070E080E090E0A7019601DCD1F5012183D5
S1131170228386E094E094838383EFE2F1E010839A
S11311800183028382E397E0948383830F2EFAE240
S1131190AF2EF1E0BF2EF02DD5011C9364EF71E06A
S11311A080E090E0A7019601BDD1F501218322835F
S11311B08DE790E094838383C701B6010E94860083
S11311C00E9497006E01FBE0CF0ED11CB5DDCE016D
S11311D001967C01D7010D911D917D01F801928149
S11311E0818198130CC080810380F481E02D082E46
S11311F0000C990B0995D8018C9312961C92F80156
S113120082818F5F8283EC14FD0421F780914F016A
S11312108823E1F310924F01D9CF9CD008F481E0E8
S113122008950CD0D2C0CAD040F0C1D030F021F41F
S11312305F3F19F0B3C05111FCC0B6C0D7D098F3CA
S11312409923C9F35523B1F3951B550BBB27AA2743
S113125062177307840738F09F5F5F4F220F331FB5
S1131260441FAA1FA9F333D00E2E3AF0E0E830D081
S113127091505040E695001CCAF729D0FE2F27D084
S1131280660F771F881FBB1F261737074807AB0752
S1131290B0E809F0BB0B802DBF01FF2793585F4FC7
S11312A02AF09E3F510568F079C0C3C05F3FECF35C
S11312B0983EDCF3869577956795B795F7959F5F8C
S11312C0C9F7880F911D9695879597F90895E1E0E0
S11312D0660F771F881FBB1F621773078407BA073F
S11312E020F0621B730B840BBA0BEE1F88F7E0959A
S11312F0089504D06894B1119CC008957FD088F0FB
S11313009F5790F0B92F9927B751A0F0D1F0660FED
S1131310771F881F991F1AF0BA95C9F712C0B13008
S113132081F086D0B1E0089583C0672F782F882795
S1131330B85F39F0B93FCCF3869577956795B39547
S1131340D9F73EF490958095709561957F4F8F4FB6
S11313509F4F0895990F0008550FAA0BE0E8FEEF80
S113136016161706E807F907C0F012161306E40765
S1131370F50798F0621B730B840B950B39F40A265E
S113138061F0232B242B252B21F408950A2609F43C
S1131390A140A6958FEF811D811D089597F99F6740
S11313A080E870E060E008959FEF80EC08950024E9
S11313B00A941616170618060906089500240A94B6
S11313C012161306140605060895092E0394000C3C
S11313D011F4882352F0BB0F40F4BF2B11F460FFCB
S11313E004C06F5F7F4F8F4F9F4F089557FD9058F4
S11313F0440F551F59F05F3F71F04795880F97FBD5
S1131400991F61F09F3F79F087950895121613068E
S11314101406551FF2CF4695F1DF08C016161706BD
S11314201806991FF1CF86957105610508940895F2
S1131430E894BB2766277727CB0197F908958ADFBD
S113144008F48FEF08950BD0C0CFB1DF28F0B6DFDA
S113145018F0952309F0A2CFA7CF1124EACFC6DF55
S1131460A0F3959FD1F3950F50E0551F629FF001B3
S1131470729FBB27F00DB11D639FAA27F00DB11D0C
S1131480AA1F649F6627B00DA11D661F829F222795
S1131490B00DA11D621F739FB00DA11D621F839F1C
S11314A0A00D611D221F749F3327A00D611D231FF2
S11314B0849F600D211D822F762F6A2F11249F5740
S11314C050408AF0E1F088234AF0EE0FFF1FBB1F63
S11314D0661F771F881F91505040A9F79E3F510502
S11314E070F05CCFA6CF5F3FECF3983EDCF38695BB
S11314F077956795B795F795E7959F5FC1F7FE2BAD
S1131500880F911D9695879597F90895991B79E011
S113151004C0991F961708F0961B881F7A95C9F77F
S113152080950895A1E21A2EAA1BBB1BFD010DC0D4
S1131530AA1FBB1FEE1FFF1FA217B307E407F5077F
S113154020F0A21BB30BE40BF50B661F771F881F5B
S1131550991F1A9469F760957095809590959B01F1
S1131560AC01BD01CF010895EE0FFF1F0024001C44
S11115700BBE0790F691E02D0994F894FFCF7E
S113157E610158015D0152015B015F01500154018B
S113158E6801560101000101180305010000003E27
S10D159E01390134012F012A010074
S9030000FC
