S00E00006D61696E2E632E73726563E0
S113000045C0000060C000005EC000005CC000008D
S11300105AC0000058C0000056C0000054C0000080
S113002052C0000050C000004EC000004CC0000090
S11300304AC000007EC0000046C0000044C000006A
S113004042C0000040C000003EC000003CC00000B0
S11300503AC0000038C0000036C0000034C00000C0
S113006032C0000030C000002EC000002CC00000D0
S11300702AC0000028C0000026C0000024C00000E0
S113008022C0000020C000001EC0000011241FBEBA
S1130090CFEFD0E4DEBFCDBF11E0A0E0B1E0EEE4ED
S11300A0FDE000E00BBF02C007900D92A031B10744
S11300B0D9F721E0A0E1B1E001C01D92A038B20758
S11300C0E1F763D242C69CCF60930B0170930C019D
S11300D080930D0190930E0160937B0170937C01DA
S11300E080937D0190937E0108958BE0809381003D
S11300F08DE790E0909389008093880082E080935C
S11301006F00109285001092840080910B019091F1
S11301100C01A0910D01B0910E0180937B0190938D
S11301207C01A0937D01B0937E018FB780688FBF5F
S113013008951F920F920FB60F9211248F939F93DD
S1130140AF93BF9380917B0190917C01A0917D013D
S1130150B0917E010197A109B10980937B0190932D
S11301607C01A0937D01B0937E01892B8A2B8B2B7C
S113017099F481E080937F0180910B0190910C01AF
S1130180A0910D01B0910E0180937B0190937C01AD
S1130190A0937D01B0937E01BF91AF919F918F9108
S11301A00F900FBE0F901F901895FC018185882336
S11301B089F08150818785819681089623813481D5
S11301C08217930719F42181828102C0282F892F75
S11301D0258386830895CF93DF93EC0189859881E5
S11301E08917C8F48F5F8987AF81B88588E0FB01E0
S11301F001900D928A95E1F78F81988508962B815D
S11302003C818217930719F429818A8102C0282F1F
S1130210892F2F838887DF91CF91089540E050E0A4
S1130220E8E0682F70E0E5B99B01042E02C0359523
S113023027950A94E2F72170922F986095B92A6065
S113024025B94F5F5F4F4830510569F7966095B9FE
S113025015B8089540E050E0E8E0682F70E0EBB98D
S11302609B01042E02C0359527950A94E2F721706C
S1130270922F98609BB92C602BB94F5F5F4F483029
S1130280510569F796609BB91BB808958F929F92A8
S1130290AF92BF92CF92DF92EF92FF920F931F9390
S11302A0CF93DF93CDB7DEB728970FB6F894DEBFB0
S11302B00FBECDBFE0917901F0917A01B0808180C9
S11302C09280A380E480F580970136952795ABE76B
S11302D0B4E12CD56C01D694C79400916D011091B2
S11302E06E0101151105E1F0F8012081318142818F
S11302F053816B2D782D892D9A2DF0D4882344F4C5
S1130300F80184819581E816F90660F07FEC0DC050
S1130310F80184819581E816F90630F073EF05C081
S11303207FEC03C07FE301C07CEF8B2D982DA92DBA
S1130330BA2D89839A83AB83BC832B2D3A814B815D
S11303405C8160E08C2D90E028960FB6F894DEBFB7
S11303500FBECDBFDF91CF911F910F91FF90EF9012
S1130360DF90CF90BF90AF909F908F900895FC0145
S11303708481880F848397812681921710F09111CC
S113038002C0816084839F5F978308950F931F93B6
S1130390CF93DF938C01FC01C581D6810BC0CE01C4
S11303A0E6DF2896F80183819481C817D90711F4F0
S11303B0C181D281F80187819085C817D90779F75F
S11303C0DF91CF911F910F9108950F931F93CF93B6
S11303D0DF93CDB7DEB728970FB6F894DEBF0FBE14
S11303E0CDBF8130910569F08230910579F1892B77
S11303F009F0A3C08091790190917A01892B59F574
S1130400A2C08091790190917A01892BA1F4809105
S11304100901882381F081E080936F018FEF1ADF57
S113042080E0FCDE10927001109271011092720152
S11304301092730188C010920A0180910501909175
S1130440060190936C0180936B0180C080910A0136
S1130450882309F47BC020916D0130916E01809155
S1130460790190917A0128173907B9F00FDF2983B0
S11304703A834B835C836D837E838F839887BE012D
S11304806F5F7F4F80E091E0A6DE809179019091CB
S11304907A0190936E0180936D01E0910501F091D2
S11304A00601278130E0868190E0079628173907F6
S11304B01CF080E091E079DEE0910501F091060105
S11304C08781873080F08581809374018081918158
S11304D0A281B3818093700190937101A093720102
S11304E0B09373010AC010927401109270011092BB
S11304F07101109272011092730180E091E046DF65
S113050081E090E037C00091010110910201109345
S11305106C0100936B018091070190910801801791
S1130520910771F4809105019091060190936C01FB
S113053080936B0182E090E01DC080E090E01AC0DF
S113054082E090E017C080E090E014C000916B015D
S113055010916C01F80185817DDEF80184815EDEF5
S1130560085F1F4F80910301909104010817190738
S113057051F2CDCF28960FB6F894DEBF0FBECDBF93
S1130580DF91CF911F910F910895CF93DF93CDB752
S1130590DEB7C855D1400FB6F894DEBF0FBECDBF4D
S11305A08FEF81B912B884B915B80F2EC12CF0ECB5
S11305B0DF2EF2E1EF2EF4E4FF2EF02DC982DA8271
S11305C0EB82FC82E6E9F0E0FE83ED8342E350E057
S11305D058874F830F2E412CF0E85F2EFEE26F2EDA
S11305E0F4E47F2EF02D49865A866B867C86FE873E
S11305F0ED87588B4F870F2E812CF0EE9F2EF2E95A
S1130600AF2EF4E4BF2EF02D898A9A8AAB8ABC8A75
S11306106CE271E07E8B6D8B84E690E0988F8F8B1B
S1130620C98EDA8EEB8EFC8EFE8FED8F58A34F8F22
S113063049A25AA26BA27CA2FEA3EDA358A74FA382
S113064089A69AA6ABA6BCA67EA76DA798AB8FA7D2
S113065000E010EE24EA34E409AB1AAB2BAB3CAB5C
S11306607EAB6DAB98AF8FAB0F2E812CF0EA9F2E33
S1130670FEEAAF2EF4E4BF2EF02D89AE9AAEABAEF7
S1130680BCAE9EAF8DAF21969FAF8EAF21972596BE
S11306900CAF1DAF2EAF3FAF259727969FAF8EAF00
S11306A0279729969FAF8EAF29972D968CAE9DAE36
S11306B0AEAEBFAE2D972F969FAF8EAF2F9761969C
S11306C05FAF4EAF619765960CAF1DAF2EAF3FAFD6
S11306D0659767969FAF8EAF679769969FAF8EAF0A
S11306E0699700E010EE22E834E46D960CAF1DAF7C
S11306F02EAF3FAF6D976F969FAF8EAF6F97A1965A
S11307009FAF8EAFA1970F2E812C912CFCE5AF2EBD
S1130710F4E4BF2EF02DA5968CAE9DAEAEAEBFAE6A
S1130720A5970F2EF8EC2F2E312CF02DA7963FAE67
S11307302EAEA797A9963FAE2EAEA997AD968CAED6
S11307409DAEAEAEBFAEAD97AF963FAE2EAEAF97F9
S1130750E1969FAF8EAFE197E596CCAEDDAEEEAEFF
S1130760FFAEE597E7963FAE2EAEE797E9969FAFCB
S11307708EAFE997ED964CAE5DAE6EAE7FAEED9763
S1130780EF969FAF8EAFEF97C158DF4F9983888361
S1130790CF57D04000E010E024E434E4CF57DF4FDB
S11307A0088319832A833B83C158D040CB57DF4F3A
S11307B099838883C558D040C957DF4F998388836C
S11307C0C758D040C757DF4F88829982AA82BB821C
S11307D0C958D040AEE5B1E0C357DF4FB983A88311
S11307E0CD58D040C157DF4F39822882CF58D040EE
S11307F0CF56DF4F88829982AA82BB82C159D040EA
S1130800CB56DF4F79836883C559D040C956DF4F33
S113081099838883C759D040C756DF4FC882D9828D
S1130820EA82FB82C959D040C356DF4F39822882FD
S1130830CD59D040C156DF4F99838883CF59D040DA
S1130840CF55DF4F488259826A827B82C15AD04099
S1130850CB55DF4F99838883C55AD040C955DF4FA4
S113086099838883C75AD040C755DF4F08831983BB
S11308702A833B83C95AD040C355DF4F9983888369
S1130880CD5AD040C155DF4F99838883CF5AD04089
S113089000E010EC24E234E4CF54DF4F08831983E2
S11308A02A833B83C15BD040CB54DF4FB983A883F9
S11308B0C55BD040C954DF4F39822882C75BD04022
S11308C0C754DF4FC882D982EA82FB82C95BD04019
S11308D0C354DF4FF983E883CD5BD040C154DF4F6D
S11308E059834883CF5BD040CF53DF4F488259822E
S11308F06A827B82C15CD040CB53DF4FF983E883AB
S1130900C55CD040C953DF4F59834883C75CD0408E
S113091000E010EE22E934E4C753DF4F0883198363
S11309202A833B83C95CD040C353DF4F79836883F8
S1130930CD5CD040C153DF4F99838883CF5CD040D6
S1130940CF52DF4FC882D982EA82FB82C15DD04098
S1130950CB52DF4FF983E883C55DD040C952DF4FE6
S113096059834883C75DD040C752DF4F48825982BC
S11309706A827B82C95DD040C352DF4FF983E8832A
S1130980CD5DD040C152DF4F59834883CF5DD04005
S1130990CF51DF4F088319832A833B83C15ED04044
S11309A0CB51DF4F79836883C55ED040C951DF4F97
S11309B099838883C75ED04000E010EE24EA34E4D3
S11309C0C751DF4F088319832A833B83C95ED04014
S11309D0C351DF4F79836883CD5ED040C151DF4F6F
S11309E099838883CF5ED04000E010EA2EEA34E495
S11309F0CF50DF4F088319832A833B83C15FD040E4
S1130A00CB50DF4F99838883C55FD040C950DF4FF7
S1130A1099838883C75FD04000E010EE24EA34E471
S1130A20C750DF4F088319832A833B83C95FD040B3
S1130A30C350DF4F99838883CD5FD040C150DF4FCF
S1130A4099838883CF5FD04000E010EA2EEA34E433
S1130A50CF5FDE4F088319832A833B83C150D14083
S1130A60CB5FDE4F99838883C550D140C95FDE4F89
S1130A7059834883C750D14020E030EE44EA54E41F
S1130A80C75FDE4F288339834A835B83C950D140D3
S1130A90C35FDE4F99838883CD50D140C15FDE4F61
S1130AA099838883CF50D14000E010EE22E834E4EB
S1130AB0CF5EDE4F088319832A833B83C151D14023
S1130AC0CB5EDE4F99838883C551D140C95EDE4F2A
S1130AD099838883C751D140C75EDE4F888299824B
S1130AE0AA82BB82C951D140C35EDE4F39822882BB
S1130AF0CD51D140C15EDE4F39822882CF51D140E1
S1130B00CF5DDE4F88829982AA82BB82C152D140D6
S1130B10CB5DDE4F39822882C552D140C95DDE4F9C
S1130B2099838883C752D140C75DDE4FC882D9827A
S1130B30EA82FB82C952D140C35DDE4F39822882EA
S1130B40CD52D140C15DDE4F99838883CF52D140CD
S1130B50CF5CDE4F488259826A827B82C153D14086
S1130B60CB5CDE4F99838883C553D140C95CDE4F8B
S1130B7099838883C753D14020E030E044E454E4AF
S1130B80C75CDE4F288339834A835B83C953D140D2
S1130B90C35CDE4F99838883CD53D140C15CDE4F63
S1130BA099838883CF53D140CF5BDE4F888299826B
S1130BB0AA82BB82C154D140CB5BDE4F7983688368
S1130BC0C554D140C95BDE4F99838883C754D14053
S1130BD0C75BDE4F88829982AA82BB82C954D14006
S1130BE0C35BDE4F39822882CD54D140C15BDE4FD6
S1130BF099838883CF54D140CF5ADE4FC882D9829B
S1130C00EA82FB82C155D140CB5ADE4F7983688397
S1130C10C555D14080ED97E0C95ADE4F998388834A
S1130C20C755D140CE010196909378018093770106
S1130C30885A9E4F9093760180937501E0E1F1E02C
S1130C40108282E090E0A0E0B0E081839283A383ED
S1130C50B48385839683A783B08785EE91E09287DA
S1130C60818761E070E080E090E02EDA3EDA00E116
S1130C7011E0D80115964D915D916D917C91189775
S1130C8011968D919D910D90BC91A02D48175907F7
S1130C906A077B0780F0F80180810184F285E02DEA
S1130CA0082E000C990B0995D8018C93F801158234
S1130CB0168217821086F80185819681A781B085F6
S1130CC00196A11DB11D85839683A783B08780916A
S1130CD07F018823E1F310927F01CBCF03D008F486
S1130CE081E00895990F0008550FAA0BE0E8FEEF84
S1130CF016161706E807F907C0F012161306E407DC
S1130D00F50798F0621B730B840B950B39F40A26D4
S1130D1061F0232B242B252B21F408950A2609F4B2
S1130D20A140A6958FEF811D811D0895A29FB0015A
S1130D30B39FC001A39F700D811D1124911DB29F0B
S1110D40700D811D1124911D0895F894FFCFAC
S1130D4E0A1B016B011B011B0100010100000000C5
S9030000FC
